:020000041000EA
:1000000000B5324B212058609868022188439860DF
:10001000D860186158612E4B002199600221596106
:100020000121F02299502B49196001219960352056
:1000300000F044F80222904214D00621196600F024
:1000400034F8196E01211966002018661A6600F04E
:100050002CF8196E196E196E052000F02FF8012189
:100060000842F9D1002199601B49196000215960AB
:100070001A491B48016001219960EB211966A021F2
:10008000196600F012F800219960164914480160C1
:100090000121996001BC002800D000471248134993
:1000A000086003C880F30888084703B5996A0420EC
:1000B0000142FBD001200142F8D103BD02B5186610
:1000C0001866FFF7F2FF186E186E02BD00000240BE
:1000D000000000180000070000035F00212200005C
:1000E000F4000018222000A00001001008ED00E03C
:1000F00000000000000000000000000074B24E7A12
:1001000000200420F7010010C3010010C5010010F9
:10011000C1010010C1010010C1010010C101001097
:10012000C1010010C1010010C1010010C701001081
:10013000C1010010C1010010C9010010CB01001065
:10014000CD010010CD010010CD010010CD01001037
:10015000CD010010CD010010CD010010CD01001027
:10016000CD010010CD010010CD010010CD01001017
:10017000CD010010CD010010CD010010CD01001007
:10018000CD010010CD010010CD010010CD010010F7
:10019000CD010010CD010010CD010010CD010010E7
:1001A000CD010010CD010010CD010010CD010010D7
:1001B000CD010010CD010010CD010010CD010010C7
:1001C00000BE00BE00BE00BE00BE00BE00F04BF888
:1001D000103800BEF2EB88718C590410AC59041031
:1001E0003402001090A31AE700202149086006C8D5
:1001F00081F3088810471F48006800282FD10DA4FC
:100200000ECC002902D000F012F8F9E71A491B4A77
:10021000002000E001C19142FCD1194988471949E9
:1002200088471949884700BEFDE701C901C29A42C3
:10023000FBD37047AC590410C0000020E81D00201B
:10024000D47604100000042000000420D4760410AA
:1002500000100420001004200000000070470B482C
:1002600004F06CFA0047EFF30580C0B2704700005D
:1002700008ED00E0000000D0E81D00206C440020E4
:10028000A5250010C1040010CD260010575600000F
:1002900006005250ABB3605324C103100600525005
:1002A000861C030234C10310060052505422A29D42
:1002B00040C1031005005250DE65F468D476041086
:1002C000F8B5C046054B0648033310B51B1A062B7C
:1002D00003D9044B002B00D0984710BDE81D002027
:1002E000E81D0020000000000648074910B5091A63
:1002F0008910CB0F5918491003D0044B002B00D0A4
:10030000984710BDE81D0020E81D002000000000F7
:1003100010B5074C2378002B09D1FFF7D3FF054B0D
:10032000002B02D0044800E000BF0123237010BD61
:10033000F01E00200000000080B90310094B10B52A
:10034000002B03D00849094800E000BF08480368B3
:10035000002B02D1FFF7C8FF10BD064B002BF9D0D0
:100360009847F7E700000000F41E002080B9031052
:10037000E81D00200000000010B503726B461B7BD7
:100380006C4643726B461B7C248983726B461B7DD3
:1003900084808171C271C372043007F09FFD10BD6B
:1003A000F8B5040004301D0016000F0007F0F0FD42
:1003B000FA210423E05E890004F0F2F9069B079A13
:1003C0001970A3793B70E3793370237A2B70637AC9
:1003D0001370A37A089A1370E37A099A1370F8BD20
:1003E000334AF8B54E469146324A57469246324A0B
:1003F0004546DE46934602222C23E0B504002C2518
:1004000000279046C35C012B34D0002B3ED0022B3A
:1004100002D03AE043466355200000F0B1FB2000D3
:1004200000F08EFD06000128F4D1002231212000C9
:1004300000F01EFA584605F04FFB665501220021D8
:100440002000276100F086F9200000F04DFA676077
:10045000635DD8E700220021200000F07BF9200036
:1004600000F094FA200000F08BFB2369002B17D1D9
:1004700001236355200000F063FD0028EAD001222B
:100480000021200000F066F9E9E767550B4801F00C
:100490005BFB484605F020FB200000F067F9E7E72A
:1004A000504605F019FB434663552761B4E7C04643
:1004B000B8B90310E4B9031040BA03108813000060
:1004C00010B500248CB005F013FB1B4801F03CFB79
:1004D0001A4805F001FB1A4801F036FB194805F0EF
:1004E000FBFA194B05A80093019402940394049419
:1004F00000F0A2F86A46154B69460093144B069427
:100500000893144B9384012326228B5401328B547D
:10051000223A2733CA540133CC540133CC5401332B
:10052000CC5407F0BFFC09A807F0D8FC2C236A467E
:100530006846D454FFF754FF8813000098BA03109C
:10054000B80B0000B0BA031088B9031000BE031046
:10055000B0B90310E507000010B5024807F058FFD6
:1005600010BDC046A036002010B5024807F050FF6D
:1005700010BDC046A436002010B5024807F048FF61
:1005800010BDC046A836002010B5024807F040FF55
:1005900010BDC046AC36002010B5024807F038FF49
:1005A00010BDC046B0360020F0B5C6468C4600B53A
:1005B00011001A0006AB1B7807AC9846634603701F
:1005C0004346277808AC26780AAC25780BAC24780B
:1005D000C3700C9B07714671C571417082700472C3
:1005E000C36004BC9046F0BD10B504780C7041782F
:1005F000117082781A70C378029A13700379039A83
:1006000013704379049A13708379059A1370C37930
:10061000069A1370037A079A0020137010BDC04623
:10062000C0687047C160704710B5024807F0F0FE1F
:1006300010BDC046B4360020002303607047C0469A
:10064000F0B557464546DE464E46E0B58DB00A93B6
:1006500016AB1B7805680B9317AB1F7818AB1B788C
:100660000400984619AB1B78089199461AAB1B7881
:1006700009929A461BAB1B789B46002D01D125E0C1
:1006800025002800FFF7CCFF041EF9D1102004F04C
:10069000E1FF5B460593534604934B460393434661
:1006A000060002930B9B08990093069401970A9BFE
:1006B000099AFFF779FF31002800FFF7B3FF0DB06B
:1006C0003CBC90469946A246AB46F0BD102004F0D3
:1006D000C1FF2368050006935B46059353460493C8
:1006E0004B460393434602930B9B01970093099A51
:1006F0000A9B0899FFF758FF2560E0E710B586B020
:100700000D9C006805940C9C04940B9C03940A9C1B
:100710000294099C0194089C0094FFF765FF002057
:1007200006B010BD70B504680500002C07D020008D
:10073000FFF776FF10212860200004F093FF0020CF
:1007400070BDC04610B5024807F062FE10BDC0463D
:10075000B836002001238B40002A03D1D022120694
:1007600093617047D02212065361FAE7F8B5CE467E
:100770004746040080B5364805F0AEF9D025002084
:1007800000F044FD01232D066B62152000F03EFDB4
:1007900080239B036B62012000F038FD02230426B6
:1007A000AB62022000F032FDAE62032000F02EFDAD
:1007B0000823E121AB62274D4902280000F0DEFD4D
:1007C0000221102000F00AFD0221112000F006FD98
:1007D000C0222B6B1202904613401F4A6027136001
:1007E000EB6A6E251D4A7B402B40962113601C4B03
:1007F00089019946180000F0C1FD0221082000F08F
:10080000EDFC0221082000F0E9FC4B4642461B6B40
:1008100020001340134A243013604B46DB6A0A223F
:100820007B401D40104B1D60104BA38423002033E0
:10083000DA71043A1A7207325A7211329A7200222D
:100840009E71DA7207F04AFB0CBC90469946F8BDDF
:10085000CCBD031000400340305003402C500340F7
:1008600000800340309003402C900340E5070000D7
:10087000F0B5D6464F4646460400C0B5194886B086
:1008800092460F0005F028F920002500243007F0DB
:100890007FFBFA212035EB7989009946AB796E7A96
:1008A00098462423E05E03F07BFF534605930B2319
:1008B000B3429B4120005B4204970393EB7AC9B299
:1008C0000293AB7A1430019300964B464246FFF7F1
:1008D000B7FEA3690133A36106B01CBC90469946DC
:1008E000A246F0BD54BC0310036870B51B68114DDF
:1008F00004000122AB420FD1D0231B065A616420B1
:1009000001F022F923681B68AB420ED18022D0236C
:1009100092031B069A6170BD00219847642001F084
:1009200013F923681B68AB42F0D000221521200088
:100930009847F0E755070010036870B51B68124D23
:100940000400AB4210D1D02301221B069A6164201F
:1009500001F0FAF823681B68AB420FD18022D02344
:1009600092031B065A6170BD002200219847642043
:1009700001F0EAF823681B68AB42EFD00122152191
:1009800020009847EFE7C04655070010F0B5CE4667
:100990004746D02480B52406636887B005009B07CE
:1009A00060D5022263681A42FCD1642001F0CCF8C1
:1009B0002B682800DB6898470700012857D0694852
:1009C00005F08AF82B6868491A698A4200D0A5E0C8
:1009D0001B68664EB34200D0AAE00123A3616420E5
:1009E00001F0B2F82A681368B34200D09AE080217F
:1009F000D02389031B06596101232B616B60D369E6
:100A00005B4A934200D083E000223021594805F030
:100A100063F828002C00243007F0BAFAFA212034B9
:100A2000E379890098462423E85E03F0B9FE0023A9
:100A3000667AA779059330330493253BB3429B41F3
:100A400028005B420393E37A14300293A37AC9B27D
:100A50000193009643463A00FFF7F2FD0120AB698F
:100A60000133AB6107B00CBC90469946F0BD4248DB
:100A700005F032F82B6841495A698A425DD11B68FA
:100A80003A4EB34268D16761642001F05DF82B688B
:100A90001C68B4425AD18021D02289031206916188
:100AA0000022DB6991466A60314A934249D10022B3
:100AB0003121304805F010F828002C00243007F0D0
:100AC00067FAFA212034E379890098462423E85E06
:100AD00003F066FE4B46667AA7790593313304939B
:100AE000263BB3429B4128005B420393E37AC9B2A1
:100AF0000293A37A3A000193009643461430FFF71D
:100B00009FFDAB690133AB61002300202B61A9E796
:100B100028000022302198470120A3E728009047B1
:100B20002A6869E701221521280098472A6863E7A7
:100B3000002200212800984751E7280090472B68A1
:100B4000AEE70022312128009847DDE70022152179
:100B50002800A0472B68A3E701220021280098471E
:100B600092E7C046F0BB031039090010550700108A
:100B70007108001054BC031090BB0310E90800106A
:100B8000F0B55746DE464E464546C04BE0B59A693D
:100B900010238DB08246134203D0BD4A926913429E
:100BA00014D11023B94A91690B4216D110219369CF
:100BB0001942FCD153469B6910680693B44BC0B2EE
:100BC0009B69194211D0022800D1A3E10DB03CBCB1
:100BD00090469946A246AB46F0BD524692690692AF
:100BE000AB4A92691342F1D100201021A84A9369BF
:100BF0001942FCD11468E4B2022800D191E1052C1D
:100C0000E4D1A44804F0CAFD0123A14C0793069B3C
:100C1000002B00DCAEE014235344994601239B468D
:100C200002AB9C46012321272025984667440AAE43
:100C300002AA94462723634405932623634404931E
:100C40002523634403930BAB029323236344019353
:100C500022231F2163446144009332003B00484635
:100C6000FFF74CFD3B7802A89C462723C01800786C
:100C700002A93278C97F0590262002AB1B1818788C
:100C800002AB049025201B18187802AB0390242097
:100C90001B18187802AB029023201B18187802AB9F
:100CA000019022201B181878634600907A4804F0BF
:100CB00013FF642000F048FFA3691D42FCD14346A6
:100CC0002360A3691D42FCD14346236002ABDA7F57
:100CD000A3691D42FCD122603278A3691D42FCD178
:100CE00022603A78A3691D42FCD12260222202AB25
:100CF0009B181A78A3691D42FCD12260232202AB03
:100D00009B181A78A3691D42FCD12260242202ABF1
:100D10009B181A78A3691D42FCD12260252202ABE0
:100D20009B181A78A3691D42FCD12260262202ABCF
:100D30009B181A78A3691D42FCD12260272202ABBE
:100D40009B181A78A3691D42FCD12260A3691D4239
:100D5000FCD1032348462360FFF7E4FC5346524688
:100D60009B69013B936101239C46069BE3449B45A1
:100D700000DC5DE7494804F0AFFE642000F0E4FECB
:100D8000079B20215A00464BD25E302A62D0202198
:100D9000A3691942FCD130232360302A00D1B2E08C
:100DA0002021A3691942FCD130232360302A00D1CD
:100DB000A2E02021A3691942FCD130232360302A0C
:100DC00000D192E02021A3691942FCD13023236095
:100DD000302A00D182E02021A3691942FCD13023BE
:100DE0002360302A73D02021A3691942FCD130231B
:100DF0002360302A64D02021A3691942FCD130231A
:100E00002360302A55D02021A3691942FCD1302318
:100E10002360302A46D02021A3691942FCD1302317
:100E20002360302A2AD02021A3691942FCD1302323
:100E30002360302A1BD02021A3691942FCD1302322
:100E40002360042A0CD02022A3691A42FCD1042377
:100E50002360BBE6A3691942FCD10D23236096E70A
:100E60001C32A3691A42FCD10D232360EBE7202139
:100E7000A3691942FCD10D232360DCE72021A3697B
:100E80001942FCD10D232360CDE7C046004003404A
:100E900000800340D0BA031044BB031000BB031012
:100EA000A04100202021A3691942FCD10D23236019
:100EB000B1E72021A3691942FCD10D232360A2E7E9
:100EC0002021A3691942FCD10D23236093E720213F
:100ED000A3691942FCD10D23236084E72021A36973
:100EE0001942FCD10D23236075E72021A369194223
:100EF000FCD10D23236065E72021A3691942FCD1B1
:100F00000D23236055E72021A3691942FCD10D234D
:100F1000236045E7084804F041FC0023074C079391
:100F200075E6054804F03AFC052C00D16CE6002378
:100F3000024C07936BE6C046D0BA03100040034052
:100F4000F0B5CE464746D02580B52D066B6887B0F4
:100F5000040001265B071CD48368012B00D19DE0AF
:100F6000D0252D066B6801261B0755D4E368012B9D
:100F700000D1CFE0D022012312065068800818402B
:100F800002D15068C008184007B00CBC9046994682
:100F9000F0BDFA20400000F0D7FDA768002FDFD198
:100FA0006B689B081E42DBD02368824ADB69A6601F
:100FB000934200D0F4E0002232217F4804F08CFDFF
:100FC00020002500243006F0E3FFFA212035EB79DC
:100FD00089009946AB796E7A98462423E05E03F047
:100FE000DFFB32230493273BB3429B4120005B424B
:100FF00005970393EB7AC9B20293AB7A4246019309
:1010000000964B461430FFF71BFBA3690133A36125
:101010006A4804F061FDA3E7C82000F095FDE76889
:10102000002FA7D16B68DB081E42A3D02368614A5A
:10103000DB69E660934200D0B7E0002233215E48CE
:1010400004F04AFD20002500243006F0A1FFFA211B
:101050002035EB7989009946AB796E7A984624233E
:10106000E05E03F09DFB33230493283BB3429B4196
:1010700020005B4205970393EB7AC9B20293AB7AE7
:101080001430019300964B464246FFF7D9FAA36904
:101090000133A3614A4804F01FFD6BE76D68AD089A
:1010A0001D4000D05CE70368424ADB6985609342DB
:1010B0006CD100223521404804F00EFD20002600AE
:1010C000243006F065FFFA212036F379890099462D
:1010D000B379777A98462423E05E03F061FB3523E9
:1010E00004932A3BBB429B4120005B42059503933E
:1010F000F37AC9B20293B37A4246019300974B4602
:101100001430FFF79DFAA3690133A3612D4804F061
:10111000E3FC25E76D68ED081D4000D02AE7236851
:10112000244ADB69E560934235D10022362122480A
:1011300004F0D2FC20002600243006F029FFFA211A
:101140002036F37989009946B379777A9846242333
:10115000E05E03F025FB362304932B3BBB429B410F
:1011600020005B4205950393F37AC9B20293B37AE8
:101170001430019300974B464246FFF761FAA3698A
:101180000133A361104804F0A7FCF3E600223521E7
:1011900020009847BAE70022362120009847F1E75F
:1011A000002232212000984732E70022332120001C
:1011B00098476FE77108001054BC03108CBC0310F3
:1011C0002CBD0310DCBC03107CBD031010B502481D
:1011D00007F01EF910BDC046BC360020094A830046
:1011E00094464022634410B51C68C0006240C0248D
:1011F00014408022520113431C60034B9C46604400
:10120000416010BD04C00140004001400123D022D4
:101210008340120693629361094A830094464022F8
:1012200063441968C0004A40C02111408022520125
:1012300013431960034B9C46052360444360704789
:1012400004C0014000400140F8B5EFF3108C72B6C5
:101250000D4F3B68002BFCD0BFF35F8FCB08C0184D
:10126000057807242B000C40E3400126334008D1C9
:10127000A64035430570BFF35F8F3B608CF3108849
:10128000F8BD100001F024FA2C0100D0F8B5474653
:10129000CE46884680B5EFF3108C72B61D4D2C6893
:1012A000002CFCD0BFF35F8F9A4218D8D4080419E1
:1012B0002678072537001540EF40F9071ED507218E
:1012C0008946063908E0D408041926784D463700C7
:1012D0001540EF40394211D001329342F3D2012040
:1012E0004042BFF35F8F00220A4B1A608CF31088D4
:1012F000002809DB0CBC90469946F8BD0123AB40A1
:101300001E4326701000ECE74346002BF2D00898ED
:1013100001F0DEF92C0100D00021044B044ABFF398
:101320005F8F02C39342FAD17047C046000100D0DC
:10133000800100D0044A1078431CDBB2172B00D97F
:10134000102313707047C0461C13002000B5054BD6
:1013500083B00100009318221F230348FFF796FF74
:1013600003B000BD20BE0310443A0020024B1868B1
:101370008007C00F7047C04600C00640F8B50400A3
:1013800006200D0001F038FB03000020002B44D0A4
:10139000294B80229C424DD0D203284B28491A6009
:1013A000284B1A6010008B689843FBD1264B802194
:1013B000E3185A425341254A5B00490006209952DE
:1013C00001F01AFB2900C00003F016FAC30925D06A
:1013D0001F4A934225D900231E4F1F4A260080250D
:1013E0006262A36200232C36AD0135432B600620D8
:1013F00001F002FB3900800003F0FEF96023E26A8D
:1014000053406E221A4080235B0133431A60134B12
:10141000236310232B600D3BA364F8BD40270122FA
:10142000DCE77F221040013040089F011A003F187E
:101430000300D3E71204B0E70080034000E000405F
:1014400000C0004000F000400080FCBFA041002030
:10145000FEFF0000C0FF3F00FFFF0000010300008F
:1014600083680B4810B58446614462440901120147
:101470009A18591854684B6801209C4201D802D030
:101480000020C0B210BD12680B689A42F9D8F7E785
:10149000FFFFFF0F40BF002000217047F8B54E4608
:1014A0004546DE465746E0B51F000CAB1D780DAB38
:1014B0001B7881469B46036816009846002D08D18C
:1014C000987B002841D13CBC90469946A246AB4649
:1014D000F8BD28006C006419033C384B00229C4680
:1014E0004B469B6860449C4600010A9B60448360B5
:1014F0000B9B06604760C36043461B681B199A70CC
:101500005A701A7043465B7B9A46002B3BD0434689
:101510002A00986851465B68984743461A68002835
:1015200024D053465B005344033BD318141952464E
:10153000A2701A78002A00D062701D70524643468D
:1015400028005A73AA45BED11FE0414644001B68DB
:101550002418033C1B195A788A73002A00D1CA73D5
:10156000002205009A705A701A70B6E753465B0065
:101570005344033BD31814199D702278002A00D0DD
:101580005A705346237043465D734B463200187DB4
:101590003B0000F0A1FC041E07D05B46002B04D1E9
:1015A0004B462900186800F0D3FE0E9B002B02D09A
:1015B0001C70280087E7280085E7C046FFFFFF0F63
:1015C000F0B557464E46DE464546E0B500276F4B20
:1015D00082008DB0D6580B9000F01CFC7268EFF3BF
:1015E000108872B61368002BFCD0BFF35F8F35688C
:1015F0006B7B9A46002B00D179E0B268644B914630
:1016000053441B0199444B461A685B68121A8B417C
:10161000002B00DC85E04B460B981A685B6800F0F5
:101620005BFC0023002208920993002300259946C1
:101630007368BFF35F8F1F6088F31088002D66D03A
:101640005B461802534649461843A84772680690FD
:101650000791EFF3108872B654461368002BFCD044
:10166000A246BFF35F8F0699079A002A22DA3369F0
:10167000002B25D0089B099C5B1A94410898099976
:101680001A002300994200D974E000D176E00121CC
:10169000039151460291494604970191009530000B
:1016A000FFF7FCFE37617368BFF35F8F1F6088F33D
:1016B000108891E71300194302D03369002B4CD1F5
:1016C0003368DA7B002A07D051008A1819688C46E3
:1016D00051466244033A51705246DA73F3685446F5
:1016E0009C46013C6444237801332370DAE70022EE
:1016F000002308920993002300259946002073686F
:10170000BFF35F8F1F6088F31088002D98D10028E9
:1017100000D061E70DB03CBC90469946A246AB466E
:10172000F0BD002B02D1002A00D074E72800002170
:1017300000F062FD4B465C681B68089309944B46B9
:101740009D68DB689946F3685344013B1B789B46D0
:101750001B021843306100206AE700F05BFB069A29
:10176000079B12184B41994204D800D08FE7904252
:1017700000D88CE701225242D31788E7904200D864
:1017800085E701225242D31781E7C046704100200D
:10179000FFFFFF0F10B5104C6368002B00D010BD89
:1017A00023000E4A1021206800F008FD032000F0FD
:1017B00025FB032000F0FAFB0949032000F046FB5B
:1017C000FFF7B8FD074B9C46032360442375064B87
:1017D00080006060DC60E2E72013002061140010EC
:1017E000C1150010400000347041002000487047CF
:1017F00020130020F0B55746DE4645464E46E0B57C
:1018000085B00193002310A909789A468B46984623
:10181000070000927A68EFF3108972B61368002B04
:10182000FCD0BFF35F8F3E68B47B002C00D173E027
:1018300065002D193368033D5B195A78B273002A8D
:1018400000D1F27342469A705A701A70BA68504BBF
:1018500094460099019AE3181B01634419605A6089
:101860000E9A9A600F9ADA60424633685B199A7052
:101870005A701A70737B0393002B00D176E0190025
:1018800073682200B0689C46E047326800285ED04A
:1018900003985519844643006344033BD318A8704A
:1018A0001A78002A00D06FE01C70707384425ED0FA
:1018B000FB681B19013B18787B68BFF35F8F4246BA
:1018C0001A6089F310885346002B08D10002204388
:1018D00005B03CBC90469946A246AB46F0BD5B467F
:1018E000002B53D00E9B0F99002098470300040053
:1018F0000D000B434AD0002917DA00980199020025
:101900000B00121BAB4199421AD801D1904217D853
:1019100000920193DA467DE77B68BFF35F8F1C601E
:1019200089F3108801204042D2E700F073FA2418AE
:101930004D4100940195A94202D8EBD1A042E9D9CA
:1019400001235B42DC17DA460093019462E70399B6
:1019500055198C464B006344033BD3189C702A787E
:10196000002A00D05A706B461B7B2B707473387D35
:10197000009A019B00F0B0FA8246002898D021001E
:10198000386800F0E5FC93E76A708DE700209FE778
:10199000FFFFFF0FF0B557464E464546DE460400B2
:1019A000E0B50D0006267642F71736196F4183B071
:1019B0008F423ED83BD000F02DFA32003B00121A85
:1019C0008B41002B3FDD5C4B9A465A68EFF3108B3E
:1019D00072B61368002BFCD0BFF35F8F53461B68B1
:1019E00099469B7B9846002B32D153465B68BFF3E8
:1019F0005F8F00221A608BF310884346002B09D0BA
:101A000039004E4A536A8B420FD3906AB04201D2DA
:101A10008B420AD02000290000F008FA03B03CBC39
:101A200090469946A246AB46F0BD20BFEAE7864203
:101A3000C1D90026002700F0EDF932003B00121A50
:101A40008B41002BBFDC002BE4D1002ABBD1E1E7A6
:101A50005B0043444A46033B9C4649461268009358
:101A6000624453788B73002B00D1CB730023514613
:101A70009370537013708968314A8C4642443149DF
:101A800012016244166057609160D36000994A4623
:101A90008C46126862449370537013704B465B7BA4
:101AA0000193002B35D0190048464B4642468068CA
:101AB0005B689847002819D00198009984464A46E7
:101AC000430063448C46694612680979033BD31886
:101AD000624491701978002900D0517042461A7002
:101AE0004B465873804500D07FE715E04B46019880
:101AF0001A688446009BD11843006344033BD31803
:101B000042469A700A78002A00D05A706B461B79B8
:101B10000B704B4642465A7353463200187D3B00C9
:101B200000F0DAF9002800D15FE753464146186813
:101B300000F00EFC59E7C04620130020004005408D
:101B4000FFFFFF0F9514001070B5060000F062F95A
:101B5000FA2204000D00920000233000002103F05F
:101B6000B7FC001969418D4205D901204042C117D7
:101B7000FFF710FF70BD8D42FAD18442F5D8F7E728
:101B8000F0B557464E464546DE46E0B56F4C85B04B
:101B900080460F00029089466268EFF3108A72B6A1
:101BA0001368002BFCD0BFF35F8F2668B57B002D38
:101BB0004BD06B005B19033B9C4632680195039345
:101BC00062445378B373002B00D1F37300239370F6
:101BD00053701370A1685E4A8C464146AA181201E0
:101BE000624411605B49576091600399D3608C46F1
:101BF00032686244937053701370737B9B46002B62
:101C000000D18DE02A001900B068736898473268E7
:101C1000002800D176E05B4603995B008C4659466C
:101C20005B44033BD318624491701978002900D0BB
:101C300051701D705B4673735D4500D171E00026E5
:101C4000E3685B19013B1B7802E000230026019347
:101C50006268BFF35F8F002111608AF31088002D46
:101C600045D0002E43D1019A1B02134320BF616867
:101C7000EFF3108572B60A68002AFCD0BFF35F8FBD
:101C8000DAB294462068427B624557D0FF221A4060
:101C900051008A46016892448846514641440339BE
:101CA0008978002929D0E1681B0A88464244013A14
:101CB00012789A4245D06368BFF35F8F00221A60A2
:101CC00085F31088244A536A994508D8926A029984
:101CD00001268A4203D2FF1A7B1E9F41FEB23000CA
:101CE00005B03CBC90469946A246AB46F0BD1A4AA8
:101CF0000026536A9945F2D8E8E722699342DAD17F
:101D00002161D8E7039BD1185B465B005B44033B32
:101D1000D3189D700A78002A00D05A705B460B7069
:101D20007573207D42463B0000F0D6F8061E00D1B8
:101D300085E72900206800F00BFB81E7FF221A40AD
:101D4000B1E7614600F004FBB5E7C0462013002070
:101D5000FFFFFF0F9514001000400540F8B5CE4678
:101D6000474680B5EFF305833F2213401800103833
:101D7000EFF3108C72B61B490A68002AFCD0BFF33F
:101D80005F8F01210F008740174D184A6F63147849
:101D900091462200C24090464646002231420BD076
:101DA000696A134D884681004D59A84512D3114BDD
:101DB000BC43CA584B461C70BFF35F8F0021094BD0
:101DC00019608CF31088002A00D090470CBC904614
:101DD0009946F8BD08499B00884643441968196034
:101DE000EAE7C046280100D0004005409E4100209F
:101DF00088410020343A0020D03F054010B5010052
:101E0000024A0348FFF720FA10BDC04648BE03103F
:101E10009B410020044A516A00E01900906A536A0D
:101E20009942FAD17047C04600400540064A536ABD
:101E30009942FCD807D1044B02E05A6A914202D180
:101E40009A6A8242F9D370470040054070B5040099
:101E50000D00EFF3108672B61A4A1368002BFCD0FF
:101E6000BFF35F8F002D1BD0200000F06FFE1649DE
:101E700088420AD0200000F071FE0121200000F00D
:101E80004BFE0123A340114A1360114BA400E550FF
:101E9000BFF35F8F00220B4B1A6086F3108870BD72
:101EA0000B4BA200D5500122A2400A4920000B781A
:101EB00093430B70044900F07BFE0021200000F0EA
:101EC0002BFEE5E7280100D05D1D001038600540BD
:101ED000343A00209E410020F0B54546DE46574684
:101EE0004E46E0B52D4C83B0656A00E00D00A66A51
:101EF000616AA942FAD194461F00AB423DD9EFF383
:101F0000108972B6264C21680029FCD0BFF35F8F80
:101F100001248440E5B2A8462049224D4C63AB46DB
:101F20002D7801954546019E35435E463570051D69
:101F3000AD006A501C4A800083500B6A0020234287
:101F40000DD0486A0B0000E01000996A5A6A82427C
:101F5000FAD1874202D816D18C4514D90020BFF39C
:101F60005F8F00220E4B1A6089F3108803B03CBCCF
:101F700090469946A246AB46F0BDAB4201D1B24273
:101F8000BDD80120F2E7054B019E1C625C6343460D
:101F90009E435B4601201E70E1E7C04600400540BD
:101FA000280100D09E4100208841002010B5EFF3A9
:101FB000108472B60A490B68002BFCD0BFF35F8F08
:101FC00001238340074A0848136202789A4302704B
:101FD000BFF35F8F00230B6084F3108810BDC046F1
:101FE000280100D0004005409E410020024B9C4645
:101FF00061448900016070474000003410B504005E
:10200000FFF798F901002000FFF7F0FFFF2323718D
:10201000BFF35F8F10BDC04610B504000120FFF76D
:1020200095F901002000FFF7E1FFBFF35F8F10BDBE
:10203000F8B54E464546DE465746E0B54C006418B6
:102040000368033C1A190D005178060089460029DF
:1020500006D128003CBC90469946A246AB46F8BD46
:102060004F004F44033FD819417888460021417002
:102070005170002D12D073684A462900B068984705
:102080003368002873D0DF191A19BD701178002940
:1020900000D0797049462700117000E04D46424655
:1020A000002AD6D054004444033C1A19517889467A
:1020B000002911D1736842462900B06898473368F7
:1020C000002849D01C19DF19A5703B78002B00D0DF
:1020D000637043463B70BCE74900494403398A4674
:1020E000534459788B4600215970517073684A46A1
:1020F0004146B06898473368002843D152461C19BE
:102100009A184B46A3701378002B00D06370434697
:102110005446C84613705B46002BCBD0594630005E
:10212000FFF786FF81460028C4D002004146B06810
:1021300073689847326800282FD04B465B004B44A9
:10214000033B1119D31842469A700A78002A00D02E
:102150005A704B460B70ADE71C19DF194346BB7034
:102160002378002B00D07B702570454671E74946E7
:102170001C19DA19A1701178002900D0617015704E
:102180004D468CE741461A1953449970117800293D
:1021900000D059704B461370BDE74B465B004B4473
:1021A000033BD11814194A46A2700A78002A00D0BD
:1021B000627042461C000A70C8467BE710B5836017
:1021C0000023CCB243730133047342608373C4733E
:1021D0000068012C07D90123421C0133DBB21370C4
:1021E00003329C42F9D8FF2319404B0059180023B1
:1021F00040180338437010BDF0B54E46574645466B
:10220000DE46E0B5477B03687C00E419033C1A19FD
:10221000167883B005008946002E1ED1002911D002
:10222000C07B002869D041000918591803394F7044
:10223000EF73002E06D071008919033988460021FA
:10224000434499700023380053706E7303B03CBC54
:1022500090469946A246AB46F0BD710089190339F4
:102260008846591848788246002807D149460029EF
:10227000E5D0E87B0028D6D1EF73DCE7420052447A
:10228000033A9446019263445A78934600225A7066
:102290004A706B6852463100A86898472B6800283E
:1022A00032D0414601985A1819188E7010780028BB
:1022B00025D1514611705A46002A23D0594628008C
:1022C000FFF7B6FE824600281BD002006B68310083
:1022D000A86898472B68002825D04246991852468E
:1022E00052005244033A9A1896700878002800D099
:1022F000507052460A701A19B8E7EF73A2E7487097
:10230000D7E72B681A19B1E741465046019A591888
:102310009A1888701078002800D048701670019ABA
:1023200056469046C7E752465100514403395A1861
:10233000404693465246181882705A461278002A30
:1023400000D042705A46884616701A1956468DE7D4
:10235000F0B54546DE4657464E46E0B50C0083B024
:102360000500002200293DD0477B0168BC426BD0AC
:1023700066003619033E88198378002B32D05A0044
:10238000D318033BCB181A78944202D143E0002AB9
:1023900008D053009B18033BCB185A789442F6D1CF
:1023A00042785A7000238370437003789846002B5C
:1023B00025D1EA7B002A1DD053009B18CB18033B84
:1023C0005C704346EC73002B00D171E05C0000238D
:1023D0004444033C09198B704370002F1ED14346BF
:1023E00001226B73100003B03CBC90469946A24694
:1023F000AB46F0BDB846EC7300234370EFE719001D
:102400002800FFF715FE2968EA7B80466F7B881954
:10241000002AD6D0D0E742781A70C3E74246390086
:10242000A8686B6898472A68002824D07B00DB19CD
:102430001419033BD318A7701A78002A00D06270D1
:102440004246B8461A70CAE77E00F619033E8B1959
:102450001878804600281BD1E87B002804D0420071
:1024600012188A18033A5470EC7300225A704346CB
:1024700001326B73B6E77B00DB19033B1419D318E9
:1024800042469A702278002A00D05A702770A6E738
:1024900044004444E01E019008184478A246002CF1
:1024A00008D1EC7B002C76D1EF7300228270DCE740
:1024B000B846A1E763005344033B994649444B782F
:1024C0004A7042709B4622006B684146A868984754
:1024D0002B6800284BD049464046019C59181A19D0
:1024E00088701078002850D15146A14611705A4684
:1024F000002A20D059462800FFF79AFD041E19D063
:1025000002004146A8686B68984700281ED04A46DA
:1025100041462B68981862001219033A9A18917074
:102520000178002900D051700470E97B002905D1A1
:102530009B19B9E72B684A469818F6E74A005218E3
:102540009A18033A57709B19EF73AEE74B46296808
:10255000600000190338CB1808189C700278002A14
:1025600000D05A704346A04603708B1999E74A463B
:102570009818019A9C185246A2700278002A00D03E
:1025800062704246D0460270B1E748705146117001
:10259000019A9146ABE7032262438A18033A5770C7
:1025A00082E7C0462C4A2D4B70B51A602C4A2D4B41
:1025B0002D491A6010008B689843FBD12B4E2C4B91
:1025C0009E420AD2F5430024ED18AD080135A30060
:1025D000F35801349847AC42F9D100F097F8254AF6
:1025E000204B1A60204A9368DB018033FBD14022E4
:1025F000214B224C9A675A671A67DA66204B9C4235
:102600000BD2E6430025F618F60801362000013506
:10261000FFF7F4FC0834B542F8D11A4D1A4CC02229
:10262000A168280003F010F8A560FEF775FE00F021
:10263000F7FBFFF7AFF8154E154B9E420AD2F54354
:102640000024ED18AD080135A300F3580134984774
:10265000A542F9D170BDC046BFCDFFFF00E00040EC
:10266000FE7F3C0000F0004000C000409C1D0020A8
:10267000AC1D0020FFFFFF0100F00140941D002071
:102680009C1D00200000002000ED00E0AC1D00209B
:10269000E81D002000BEFDE7094A1368002B06D0A4
:1026A00008491818884208D2106018007047064B75
:1026B0000449181813608842F6D301204042F5E718
:1026C000E03A0020000004206C44002000BEFDE73A
:1026D0000FB400B5084883B003F060F8049B002BEA
:1026E00007D005A91800019102F008F8034803F08B
:1026F00055F800BEFDE7C04678BE031088BE031043
:1027000010B50148FFF7E4FF6CBE031030B50C2094
:1027100083B000F077F9FEF729FE00280ED09C4B1D
:102720009C4A1A605A609A60DA601A615A619A612A
:10273000DA611A62984A5A6203B030BD974CA067BA
:1027400000F0B0F90122964B1A60636C012BFCD1AA
:102750000322944B1A60914A936B012BFCD1C02247
:10276000914B92011A60914B91491A6010008B684D
:102770009843031EFAD1022406338E4A01218E4863
:10278000009400F0A3F905238C4A009401218C48A1
:1027900000F09CF98B4B5A68FF2A02D88022520025
:1027A0005A6080227A4C7F4B21691201854D1A6054
:1027B000002900D0E5E0E021824B02201A68114098
:1027C000802252012A4311601968484003210140C8
:1027D000116004219A681142FCD08022802192016C
:1027E0002A4309011160802252005A60764B23610E
:1027F000764B5968FF2900D8C1E00322684B734823
:102800001A60012103009A681142FCD0E0251A6881
:10281000154080225201024315601B684B40032182
:10282000194011600221694A93681942FCD0802343
:1028300080219B010343090119608021644B4900F9
:1028400051606361634B5A68FF2A00D85960802247
:10285000614BE16912015F4D1A60002905D0606982
:1028600001F0CAFF01300138FDD1E02259490B685F
:102870001A4080235B012B431A60802380229B0136
:102880002B4312011A608022424B52004A60E361DE
:10289000524B5968FF2900D85A608022504B216A58
:1028A00012014E4D1A60002905D0606901F0A4FFA5
:1028B00001300138FDD1E02248490B681A408023DD
:1028C0005B012B431A60802380229B012B43120162
:1028D0001A6080235B004B602E4B424A2362424BBE
:1028E0005968914201D801325A6080223F4B616A97
:1028F00012013D4D1A60002905D0606901F07CFF8E
:1029000001300138FDD1E02237490B681A4080239D
:102910005B012B431A60802380229B012B43120111
:102920001A608023DB024B601B4B6362304B5A689A
:10293000FF2A02D8802252005A6080222D4BA169C2
:1029400012012B4D1A60002905D0606901F054FF77
:1029500001300138FDD1E02225490B681A4080235F
:102960005B012B431A60802380229B012B431201C1
:102970001A6080235B004B60154BA361DCE65A6054
:102980003BE7606901F038FF01300138FDD112E703
:10299000483A0020006CDC021BB7000000800040B9
:1029A0003CB0004030B0004000E0004000F000408B
:1029B00000C00040002F68590080024000389C1C75
:1029C00000C0024030800040001BB7003C80004047
:1029D000405973075480004054B00040608000406C
:1029E00060B00040FFFF03006C8000406CB000400E
:1029F0004880004048B00040014B8000C0587047FC
:102A0000483A002080239B001843014BD86270474E
:102A10000080054010B58024184BE4051C60002898
:102A200025D00123164C1843164BDC61164C44404C
:102A30001C62596298628021104BC90519601348C5
:102A400013490860E021C9041960002A12D0FA2352
:102A5000DB005A430F4B9A420DD90F4A13601A00FC
:102A6000084B5A6080220D4BD2051A6010BD054BF1
:102A7000D861E0E70A4A084B1A60F1E700B0054068
:102A8000D3C007B0008005402D3FF84FFCFF010088
:102A900008200140FFFFFF006841002000A0054022
:102AA000A0860100AA23064A1B0113602F230549B3
:102AB000D360054B19605368002BFCDA7047C046A1
:102AC0000040024000B0FA000060024070B51D00F6
:102AD00001235B42436000230400836001600C20FB
:102AE000160001F089FE0B494143300001F084FEDD
:102AF000C022231D92011A432123A0601360236882
:102B0000002BFCDA049B2D041B031D430823E56006
:102B1000136070BD40420F0001238340002902D1A1
:102B2000034A13607047034A1360034A1360F9E7CE
:102B300080E100E080E200E000E100E0012383406A
:102B4000014A13607047C04600E200E0024B1030BB
:102B50009B688000C058704700ED00E070B50D0024
:102B6000EFF3108672B60F4A1368002BFCD0BFF348
:102B70005F8F0D4B10309B6884001B590B4A9342AA
:102B800003D09D4201D0FFF7BBFD074B9B681D5151
:102B9000BFF35F8FBFF35F8F0022024B1A6086F393
:102BA000108870BD240100D000ED00E0CD010010C0
:102BB000F0B54546DE4657464E46E0B50D0083B0BB
:102BC000EFF3108B72B65C4A1368002BFCD0BFF396
:102BD0005F8F1022904680444246584B97009B6876
:102BE000DE59574B99469E4206D0AE4200D17DE059
:102BF000544C331B2F2B12D9504B9B68DE51BFF323
:102C00005F8FBFF35F8F00224B4B1A608BF31088EE
:102C100003B03CBC90469946A246AB46F0BD0123AA
:102C200083409A465246484B1B681A4000925246CF
:102C3000464B1A60BFF35F8FFDF715FB019000282C
:102C400049D1012332009A4313001B1B5B414649C3
:102C50005943090D93689D424DD006201056002817
:102C600005DA31E0062018561A0000282CDB430054
:102C70001B189B00E31898688542F3D1062018566C
:102C800000283BDB42001118890065188846A968B6
:102C90009960E979D971062169569971A9797F29D5
:102CA00026D8AD88E11A6D052D1545444919E02552
:102CB0000905490D2D02294399801218244B9200D1
:102CC000A4181A781870A271009B002B08D15246E4
:102CD0001E4B1A6090E78045B3D0FFF711FDB0E7B7
:102CE00052461C4B1A60184B1A6085E71E0083E79A
:102CF000BD210902E0E713000022BFE70198002888
:102D00000AD1002A15D0FF30907113489080104AE4
:102D1000107811709871D7E7104A1149D21A083A01
:102D20005002400D014399800E4952080A43DA804F
:102D3000CAE74E46EBE7C046240100D000ED00E0B4
:102D4000CD0100104813002000E100E080E100E028
:102D50009C41002080E200E000BDFFFF82130020C4
:102D600000F0FFFF00F8FFFFAAAA0000F8B5012558
:102D700004000543FDF777FAEFF3108672B6214A97
:102D80001368002BFCD0BFF35F8F1F4A2100891A04
:102D90004941224B4B431B0D1C4980008F685BB29D
:102DA0003F58BD4226D006215156994226D01221C5
:102DB0005156994224D01E215156994210D02A21B1
:102DC0005156032099420CD0114A11781370A17109
:102DD000BFF35F8F00220B4B1A6086F31088F8BD9B
:102DE00002204100091889005218FF2191710949F8
:102DF0009180E9E78A6808491150E5E70020F0E78B
:102E00000120EEE7240100D04813002000ED00E08F
:102E10009C41002000BDFFFFCD010010AAAA0000C8
:102E2000F0B500220324FF27802620003D00094B37
:102E300011009C461040C0008540A14361440B68CE
:102E40000132AB43350085402B430B60202AECD187
:102E5000F0BDC04600E400E09A4200D288547047BA
:102E60007047C04610B5002803D04A680B681100AF
:102E7000984710BD10B5002800D110BD0B4B1C6841
:102E8000A2689368013B9360002B04DB1368591C14
:102E900011601870F1E791698B4201DB0A28F5D1C6
:102EA0000100200030F008FEE7E7C0468014002053
:102EB000F0B54546DE4657464E46E0B583B09946E6
:102EC0000EAB1D78119B88469B46022312990092F7
:102ED0000B4007000D9C109A0193002B28D15B46F4
:102EE000002B00D092E0944222D201260E401F2CEB
:102EF0001ED80C9B30201B1902E00133202C03D07C
:102F000001341870A242F8D8002E11D0A3450FD971
:102F10000C9B30201B195E461F2C04D987E001331F
:102F2000202C00D1A7E001341870B442F7D1A34699
:102F3000CB0611D54B0502D4002C00D07CE00F9BB2
:102F4000102B00D1A0E0022B00D1A7E01F2C11D83C
:102F500030230C9A135501341F2C0BD8002D00D0B0
:102F600079E04B0700D588E00B0733D520230C9A76
:102F7000135501348B0730D0009E2500A246320045
:102F80004446B0460C9B013D561C585D21004B4603
:102F9000B8473200002DF5D14646A04654463619B2
:102FA000019B002B0ED0009D731B5B450AD23200A3
:102FB000444601364B4621002020B8473200731B9F
:102FC0005B45F6D3300003B03CBC90469946A24620
:102FD000AB46F0BD009E8B0715D15C456ED2009AC2
:102FE0000D9413005B441D1B0D9B44469846561CD4
:102FF0004B4621002020B8473200B542F7D1434666
:10300000A0461C000D93002CB7D1C9E701260E4045
:1030100028D0002D2AD10C230B4227D1944200D373
:1030200074E71F2C00D864E7A34500D880E7CB06DF
:10303000A0D54B0500D582E7A24202D05C4500D066
:103040007DE7631E002B3BD00F9A023C102A1BD059
:103050001C00130077E72D230C9A135501348B07BE
:10306000BBD089E7944200D241E761E701235B428C
:103070009C46E344D2E7B346D9E72B230C9A135579
:1030800001348B07A9D077E78B060FD41F2C00D90A
:1030900070E778230C9A1355013457E71F2C00D999
:1030A00068E70C9A6033135501344FE71F2C00D9A1
:1030B00060E758230C9A1355013447E7009EA2E7B6
:1030C00000243CE7F0B5DE4657464E464546E0B59F
:1030D00097B005000E0093461F00209A219B100018
:1030E000190001F04EFE002800D0D5E22098219969
:1030F0000122BD4B524201F029FE002800D081E19F
:10310000209821990122B94B524201F035FE002846
:1031100000D017E1209821990022B54B01F02CFE38
:10312000002800D0BCE1209821990022B14B01F089
:103130000DFE002800D0B3E1209821990022002341
:1031400001F004FE002800D054E200230D938023F8
:10315000249ADB001A40914600D007E20023A64CD7
:103160000893099406240EAB07932098219901F047
:1031700033FE80460C9001F017FE02000B002098F1
:10318000219901F07EFD089A099B01F095FD0A90B6
:103190000B9101F045FE824601F002FE02000B0099
:1031A0000A980B9901F06DFD0022944B0A900B9147
:1031B00001F0E2FD002800D1C5E101239C46E24474
:1031C000504601F0EDFD089A099B01F0CDFD002865
:1031D00000D030E2002C00D074E10C9C200001F003
:1031E000E3FD02000B002098219901F04AFD002226
:1031F000824B0890099101F0A9FD002800D10AE254
:103200004B46202B00D196E15C1C0C9B0A21180038
:10321000984601F0C5FA4A46079B3031995440461A
:103220000A2101F0BDFA079B80469946A144002877
:103230001BD02A00330025004E464446994690464E
:10324000202D00D125E220000A2101F0A9FA303119
:10325000317020000A2101F0A3FA01350400013683
:103260000028EDD12C004E4645460323249A1340F6
:10327000012B00D19BE120229246202C0CD00D9AEC
:10328000002A00D0C1E1249A520700D44CE2621C0B
:1032900092462B2207990A555A460892002B17D1BD
:1032A000239B9A4500D34FE25B441C005346E41A2B
:1032B000B84637002E002500541C43463900202014
:1032C000B0472200AC42F7D135003E004746089493
:1032D00053465C1E079B08AA9C46172364449446E9
:1032E0006344B946984637002E00089A551C20784A
:1032F0004B463900013CB0472A00A045F6D1089B57
:10330000350053441C00249B3E009B0712D55B46AE
:10331000239AE31A9A420DD91300C84622005F4649
:1033200099460134434631002020A8472200E31B80
:103330009945F6D8200017B03CBC90469946A24665
:10334000AB46F0BD249B5B0700D5A4E02C4B9A460E
:1033500003230793249BD8469B0719D1079B2399E6
:103360008B4200D3ECE15A469B1A9846239B994620
:103370003B0031002020541CA84743461B19220063
:103380009945F5D8239B5B441C00079BE31A98469C
:10339000B14642465646BA462F00079C013C551C92
:1033A000305D53464946B8472A00002CF6D1079BAA
:1033B0003D0043441C00249B4E469B07BAD55B4608
:1033C000239AE31A9A42B5D91300D04622005F46E9
:1033D00099460134434631002020A8472200E31BD0
:1033E0009945F6D8A6E7C046FFFFEFFFFFFFEF7F46
:1033F00065CDCD4165CDCDC180842E410000E03F3B
:1034000074C00310249BD8469B0716D1239B042B22
:1034100000D897E11C1F5C44B8465A4637002E007E
:103420002500541C434639002020B0472200AC42FE
:10343000F7D135003E004746A046CE4BB94642463E
:10344000370004249A462E005346013C551C185D53
:1034500039004B46B0472A00002CF5D14446249B46
:10346000350004343E009B0700D463E75B46239A93
:10347000E31A9A4200D85DE71300C84622005F466F
:1034800099460134434631002020A8472200E31B1F
:103490009945F6D84EE7B84B9A460423079359E767
:1034A000249B5A460493239B31000393229B2800BC
:1034B0000293209B219C009301943B0000F064F94F
:1034C000040037E74B46202B35D0631E98464B4609
:1034D0000A2150465C1C01F08FF94A46079B3031A7
:1034E000995450460A2101F087F98146002800D1FD
:1034F000B6E0079B9A463B00A2444746A8462500F3
:103500004C46B14656469A4610E020000A2101F08A
:1035100073F93031317020000A2101F06DF9013F5B
:10352000013504000136002800D194E0202DECD1B3
:1035300045464E4657460323249A1340012B35D067
:1035400020229246A8E600220A980B998B4B01F0A4
:10355000FDFB002800D03DE65346002B02D0DB07E0
:1035600000D437E601239C46E24433E6229B092B34
:1035700000D8F2E00122302391460EA80370229B6E
:1035800007905C1E2F32093B494604E0425401314A
:10359000013C202901D08B42F8D1794BE2009B18E5
:1035A0001A685B68894608920993DEE52024239B0C
:1035B000002B47D00D9B002B03D1249A0C331342D0
:1035C00002D0239B013B2393239BA3423AD9202C77
:1035D00000D1BDE0302221001800079B1B190131EA
:1035E0001A7088422DD001332029F8D15B468A46D3
:1035F00008936DE6209A219B0020002101F041FBF9
:103600000123209021910D93A1E5621C92462D2269
:1036100007990A5540E6002208980999574B01F08E
:10362000ABFB002800D0EBE50123A44623409C44DB
:1036300063460C93E4E5434601330C9300239A461A
:10364000C8E5239C0123202C00D018E61F339A469E
:103650005B4608933CE62C004E464546B846574626
:10366000202C00D167E742464046079B11191B19E1
:103670003022002807D001341A70202C00D15AE7DC
:1036800001338C42F7D1631C99462E23079A1355B8
:10369000B6E545464E464EE7249BD8469B0715D1D6
:1036A000239B032B52D9DC1E5C44B8465A46370094
:1036B0002E002500541C434639002020B04722002C
:1036C000AC42F7D135003E004746A0462D4BB946E7
:1036D0004246370003249A462E005346013C551CAF
:1036E000185D39004B46B0472A00002CF5D14446FE
:1036F000249B350003343E009B0700D41AE65B464A
:10370000239AE31A934200D314E61300C84622001A
:103710005F4699460134434631002020A8472200E5
:10372000E31B9945F6D805E6249AA246120700D471
:10373000B2E50122944607991F32E2440A55ABE5EF
:10374000D84625E6D84678E60892C1E5D846BDE7D2
:1037500020239A465B460893BAE5DA00084B9B188B
:103760005C681B6808930994002399460EAB229C61
:103770000793FAE47CC003106CC003100000E03F24
:1037800088C0031078C00310F0B54E464546DE46AB
:103790005746E0B59BB00A93249B81461C000B93CF
:1037A000259B09911D000D920C93002200232000FF
:1037B000290001F0CBFA002800D093E10B9A0C9B72
:1037C00092469B468023289ADB001A400E9201D134
:1037D0000623269356465B46334300D148E15B46B9
:1037E0005800C94B400D9C46604401F0DDFAC74AC1
:1037F000C74B01F061FAC74AC74B01F04BFA5B4671
:10380000C64A1B031B0B1A4304000D00C44B1100D6
:103810005046002201F035FAC24AC34B01F04CFA7F
:1038200002000B002000290001F034FA01F0D4FA64
:10383000804601F0B9FABD4ABD4B04000D0001F00D
:103840003BFA0022BB4B01F025FA01F0C5FABA4A57
:103850000600BA4B2000290001F02EFA04003000C7
:103860000D000F9601F0A0FAB54AB64B01F024FA0C
:1038700002000B002000290001F003FA02000B00F7
:1038800006000F0001F018FA320004000D003B00A2
:103890003000390001F0FEF9002210901191AA4B7E
:1038A0002000290001F0FFF90022A84B01F0F2F9F5
:1038B00002000B002000290001F0F5F90022A44BC2
:1038C00001F0E8F902000B002000290001F0EBF9FB
:1038D0000D008021320004003B000020C90501F0EA
:1038E000D0F902000B002000290001F0D3F90200FA
:1038F0000B001098119901F0D6F90022874B01F0C6
:10390000C9F9944A0F9B9446634400221B0501F0B9
:10391000D3F906000D0002000B005046594601F095
:1039200015FA00280BD001235B429C463000290089
:103930000022864BE04401F0B6F906000D00434634
:10394000C62763339F42BF41289B7F4204371B0534
:1039500000D5ACE0279B00249F4200D2DC1B022351
:10396000289A1A400E9203D07B427B415B421C4056
:103970004346002B07D05046594632002B0001F039
:1039800092F982468B46002200230B980C9901F095
:10399000DDF9002800D0A0E0289A6F4B0394134073
:1039A0000493269B524602935B4609990092019329
:1039B00048460A9B0D9AFFF785FB0400002F4FD065
:1039C000289B65209B066CD4631C22009A460999AB
:1039D0000A9BC8474346DA179D18DB0F98467B1EA3
:1039E00055409B46002412AF02E03400202E0DD03B
:1039F00028000A2100F000FF661C30313C192170BC
:103A000028000A2100F0F8FE051EEED105230693DA
:103A10005B460593002304930A33039343460196C0
:103A2000099E02930A9B00975246310048469846E9
:103A3000FFF73EFA0E9B0400002B11D00D9F279A32
:103A4000C31B9A420CD9279B4D460200994601346C
:103A5000434631002020A8472200E31B9945F6D8B1
:103A600020001BB03CBC90469946A246AB46F0BD38
:103A7000289B56465D461B0515D500239846269A79
:103A80000023424503DD130042469B1A013B269367
:103A90008023289ADB001A430023289200279846A7
:103AA00058E7203890E700230427984652E72B0078
:103AB0003343E4D0294A2A4B5046594601F054F981
:103AC000002817D1269B002B00D143E70E9B5A1EDE
:103AD0009341269AD31A26933CE78021090659443C
:103AE0008B4659E78022120694460C9BA2466344FB
:103AF0009B4667E600221B4B5046594601F026F9CB
:103B00000028BCD1DEE7C04601FCFFFFFB799F50D7
:103B10001344D33FB3C8608B288AC63F0000F03FF0
:103B20000000F83F61436F63A787D23F71A3790913
:103B30004F930A400000E03F1655B5BBB16B024001
:103B4000EF39FAFE422EE63F00002C4000002440F0
:103B500000001840FF030000FFF7FFFF2D431CEBA0
:103B6000E2361A3F80842E41F0B54546DE46574680
:103B70004E46E0B5A1B01D002A9B09920B93A24AC4
:103B8000A24B0A9008911A60002900D187E3002314
:103B90009B469F4B2C009A465D46207800280CD00F
:103BA00025281DD06E1C2A00099B0A9D0899013406
:103BB000A847207835000028F2D10999AB462A00A1
:103BC0008D4200D34A1E099B089900200A9CA047F9
:103BD000584621B03CBC90469946A246AB46F0BD43
:103BE0001023621C9846083B9C461678043B994675
:103BF000023B9B463300203BDBB20027012114002F
:103C0000102B0CD850469B00C3589F460F430132DF
:103C1000167814003300203BDBB2102BF2D93300AE
:103C2000303B092B00D8B5E1002398462A2E00D15D
:103C3000A6E200239B462E2E00D1C0E13300683B54
:103C4000DBB2122B18D8734A9B00D3589F466346A9
:103C500001321F43DCE7434601321F43D8E74B469E
:103C600001321F43D4E75B4601321F43D0E7802374
:103C70005B0066781F4301343300253BDBB2532BD6
:103C80000FD8654A9B00D3589F466678682E00D1AE
:103C900088E280231F433300253BDBB20134532BE2
:103CA000EFD96F1C2A00099B0A9D08993000A8478C
:103CB00001343D0071E766786C2E00D16CE2802300
:103CC0005B001F430134D7E780239B0066781F43C6
:103CD0000134D1E70B9B1A1D1B680E920B935B46B8
:103CE000002B00D12BE20B9A10781600002804D18B
:103CF00000F0A4FC013B002B03D001363278002AEF
:103D0000F8D10B9BF31A0C938023DB003B409946C0
:103D100003D00C9B5B4500D9ABE202233B400F93E1
:103D200000D1B3E100281ED04B46002B00D1D0E1DA
:103D30005B465F190B9BA3465E1BB1462A00099C9C
:103D40000A9E09E023000899551CB0474B46585D70
:103D5000002800D1CEE12A009742F3D15C463D0015
:103D60000F9B002B14D00C9A904511D9434658193B
:103D7000099B861A98462A00A1460A9F089C01358D
:103D8000434621002020B8472A00B542F7D14C46CF
:103D90000E9B01340B9300E70B9B1A1D1B6890468A
:103DA000002B00D1CEE1212217430B970F210022D7
:103DB00018AE8946A44602E00A0020290CD04846E5
:103DC0001840C4B22700511C3737092801D83034B5
:103DD0002700B7541B09EFD164460B9B0191069352
:103DE000082305935B4604931023039300232A00C2
:103DF00002930096099B08990A98FFF759F84346E1
:103E0000050001340B93C8E6693B001064410020B3
:103E10008CBE0310D0BE03101CBF0310782E00D13F
:103E2000C5E1582E00D12FE26F2E00D131E3622E72
:103E300000D126E210233A009A430C92692E01D059
:103E400000F01EFC0A230E937B0500D5B7E1802706
:103E50000C9BBF001F4000D0B8E21A0080235B001B
:103E60001A40914600D06EE30C9B5B0601D500F032
:103E7000F1FB0C9B0B9A1B0600D4C1E30021535E9F
:103E80000432D90F14910B92DA179F185740002B68
:103E900009D10C9910330A009A4313000A000C93BD
:103EA000520500D5DEE30C9A6123920600D541232A
:103EB000DBB218AE0A3B16940F934C461595B146EB
:103EC0000E9E0EE03033DBB24A4638001355310007
:103ED00000F092FC071E00D1FDE12C00202D00D146
:103EE000F9E13100380000F087FC651CCBB20929EC
:103EF000E8D90F9A94466344DBB2E5E7462E00D139
:103F0000B4E107220B9B0497073393430132944695
:103F10009C4462460B92424603925A4602921A68A9
:103F20005B680899009201930A982A00099BFFF7A1
:103F3000C9F80134050030E66E1C2A00099B0A9D71
:103F400008992520A8470134350026E6BB0700D58F
:103F5000D2E04346012B00D888E3099B6F1E4744FB
:103F600098462A00A1460A9D089C561C43462100FB
:103F70002020A8473200BE42F7D14C460B9B3200AE
:103F80001F1D1878751C099B08990A9EB0470134BB
:103F90000B9702E6002332009E00F61801347600EB
:103FA000B6182278330011003039303B0929F3D993
:103FB0009846002316009B462E2E00D03EE6802316
:103FC0006678DB001F433300303B621C092B11D89D
:103FD000140033005A469600B61801347600F618DD
:103FE0002378320019003039303A0929F3D91E00FC
:103FF000934623E62A2E00D181E114001EE62023F9
:1040000032009A43472A04D180231B011F43022315
:104010009E43452E01D120231F4307220B9B0733CC
:104020009343013294469C4462460B921A685B6843
:10403000100019000C900D9100F0A3FE002800D094
:104040008CE00C980D990122CA4B524200F094FE6C
:10405000002800D082E00C980D990122C64B5242F4
:1040600000F074FE002879D1434603935B46049721
:10407000029308990C9A0D9B0A98009201932A00CA
:10408000099BFFF781FB0134050086E50C990B00C5
:104090000133884500D8EBE243462A005F190C94AF
:1040A000089D0A9C7F1A561C099B29002020A047C6
:1040B0003200BE42F7D14346350001330C9C0C93CD
:1040C0000B9B1878002800D162E64B46002B00D0ED
:1040D0002EE62A000B9BA3465F1BB9460A9E089C4E
:1040E000099F3B002100551CB0474B46585D2A00F4
:1040F0000028F6D15C4633E60B9B08991A1D187808
:104100009146099B2A000A9FB84743466E1C4544C6
:10411000012B00D8AEE2A3463200A846089C099EB7
:104120000A9D571C330021002020A8473A0047452C
:10413000F7D15C464B463D000B9301342DE501233E
:104140005B42D0E5102239009143113211430B91AB
:104150007A0500D42AE6002118AE3EE643460393D2
:104160005B460497029308990C9A0D9B0A9800925B
:1041700001932A00099BFEF7A5FF013405000CE519
:104180000B990B00096804338846002900DAB0E077
:1041900056780B93541C4CE5C0239B00A6781F4314
:1041A000023469E5C023A6781F43023464E5102376
:1041B0000E930C233A009A430C927B0502D50123FF
:1041C0009A430C92692E00D141E6642E00D13EE65E
:1041D00080270C9BBF001F4000D09EE01A00802368
:1041E0005B001A40914600D070E10C9B5B0600D545
:1041F0001FE20C9B1B0600D408E20B9B1F880433B4
:104200000B93002F09D10C9910230A009A43130035
:104210000A000C93520500D5D4E00C9A6123920653
:1042200000D54123DBB218AE0A3B15940F934C46E0
:104230001495B1460E9E0CE03033DBB24A4638008E
:104240001355310000F0D8FA071E2BD02C00202D7A
:1042500028D03100380000F0CFFA651CCBB2092914
:10426000EAD90F9A94466344DBB2E7E720231F4361
:1042700047E65B460C9302233B400F9300D051E589
:1042800004E702230E9394E70C233A009A43143375
:104290001A4310230C920E937B0590D498E7374B6A
:1042A0000A9374E44E462A00159C149D0C9B0693B9
:1042B000434605935B4604930E9B039300230293AE
:1042C00001922A000096099B08990A98FEF7F0FDD2
:1042D0000134050061E44E462A00169C159D0C9B96
:1042E0000693434605935B4604930E9B0393149BEE
:1042F000E5E702210F4341464942884648E70B9AC9
:10430000A678136802349B46DB435946DB171940F5
:10431000130004338B460B9390E407220B9B073367
:104320009343013294469C4462460B921A685F683C
:10433000130091463B4308D10C9910330A009A436D
:1043400013000A000C9352053CD40C9A6123920688
:1043500000D577E1DBB20A3B0F9343460022169368
:104360000E9B18AE1495159415004C469846B14610
:1043700019E0C046FFFFEF7FFFFFEFFF612E001047
:104380003032D2B24B4620005A5539004246002303
:1043900000F078FA0F000400014300D18FE03500EF
:1043A000202E00D18BE0424600232000390000F08F
:1043B00069FAD2B26E1C092AE2D90F9B9C4662446C
:1043C000D2B2DFE7002318AE1A006FE707220B9B7B
:1043D00007339343013294469C4462460B921A6819
:1043E0005B68D917129113911298139906005640E1
:1043F00010960E005E401196109E119F361A8F4146
:10440000D90F1096119717911A430BD10C991023BD
:104410000A009A4313000A000C93520502D50027A4
:1044200018AE41E00C9A6123920600D50CE1DBB294
:104430000A3B0F93434616930E9B18AE00229846F4
:104440003300149515941600109C119D994611E0A7
:104450003032D2B24B4620009A5529000023424602
:1044600000F010FA030004000D000B4314D03E00CE
:10447000202F11D0424600232000290000F002FA2C
:10448000D2B2771C092AE3D90F9B9C466244D2B270
:10449000E0E708230E938CE64E46169B1094119588
:1044A0009846159C149D0C9B0693434605935B46CA
:1044B00004930E9B01970393179B029301E7169BAE
:1044C0003200149D159C98464E46EFE60B9B1A1D34
:1044D0001B6815929946002B0CD10C9910330A00D9
:1044E0009A4313000A000C93520503D5002318AE1B
:1044F0001A006DE00C9A6123920600D5A6E0DBB2AB
:1045000018AE0A3B14940B934C460F95B1460E9E81
:104510000CE03033DBB24A462000D355310000F0C6
:104520006BF9041E50D02F00202D4DD031002000FB
:1045300000F062F97D1CCBB20929EAD90B9A9446A6
:104540006344DBB2E7E70B9B1A1D1B681592D91772
:104550005A184A409146DA0F1692002B0CD10C994A
:1045600010330A009A4313000A000C93520503D536
:10457000002318AE1A0052E00C9A6123920667D409
:10458000DBB218AE0A3B14940B934C460F95B14620
:104590000E9E0CE03033DBB24A462000D35531008A
:1045A00000F02AF9041E36D02F00202D33D0310020
:1045B000200000F021F97D1CCBB20929EAD90B9A21
:1045C00094466344DBB2E7E74E462A00149C0F9DF5
:1045D0000C9B0693434605935B4604930E9B039303
:1045E000002302930192099B2A00009608990A98D9
:1045F000FEF75EFC159B05000B930134FFF7CDFA27
:1046000013680432D90F14910B923DE40B9B1F6881
:1046100004330B93F5E54E462A00149C0F9D0C9B2A
:104620000693434605935B4604930E9B0393169BA8
:10463000D7E70B9B1F7804330B93E2E500230C9321
:10464000FFF762FB412385E64123F0E6412356E76D
:10465000412395E70B9A137804320B9200221492AF
:10466000FFF712FC002318AE1A0038E62E0085E48E
:104670000C9327E54B4635000B930134FFF78DFA79
:10468000063B17000E93642E00D092E5530500D52B
:1046900095E5FFF7DCFBC0460EB400B584B005AA73
:1046A00008CA010003920092012204485242FFF717
:1046B0005BFA04B008BC03B01847C046592E00107E
:1046C00000B583B0009313000A0001000248FFF711
:1046D0004BFA03B000BDC046592E001000B585B09E
:1046E00000931300012202900391524202A9024852
:1046F000FFF73AFA05B000BD652E001010B5094A63
:1047000084B01468002C09D00122009103005242A9
:1047100003A90548A047012004B010BD01F03EF8F0
:104720000020F9E764410020752E001001480421A3
:10473000014B1847901300205D470010142310B55B
:104740000100188804331B88984710BD162310B544
:104750000100188802331B88984710BDF8B54746FA
:10476000CE4680B50F1E19D0142399460433040099
:104770000025012698464B461888434621681B8829
:10478000984701C4431E9841013540420640AF425C
:10479000F1D130000CBC90469946F8BD0126F8E7EF
:1047A000144A936F9B0815D29066D166002905D0F4
:1047B000FFE7FFE7FFE7516F106F704704B58021F7
:1047C0000906C2175140002800D0C84337F078F8D6
:1047D000002104BD936F5B08FDD3F0B5946ED56ED8
:1047E000576F166FFFF7E0FF9466D5665767166739
:1047F000F0BD0000000000D0134A936F9B0813D255
:1048000010665166002905D0FFE7FFE7FFE7516F0B
:10481000106F704704B5002801D00020C04337F066
:104820004FF8002104BDC046936F5B08FDD3F0B57F
:10483000946ED56E576F166FFFF7E2FF9466D566DC
:1048400057671667F0BD0000000000D094464E4A3E
:10485000926F9208624601D230E0C046F0B54A4EEF
:10486000B56F6D08FCD3346E756E776F366F00F0E0
:1048700025F89446444A146655665767166762469B
:10488000F0BDC0469446404A926F9208624601D2FB
:1048900058E0C046F0B53C4EB56F6D08FCD3346EA1
:1048A000756E776F366F00F04DF89446364A146691
:1048B0005566576716676246F0BDC046002B24DB7D
:1048C00011D000293EDA00B5C943404200D1013180
:1048D00000F038F8C943404200D10131DB43524275
:1048E00000D1013300BD002AEBD1002801D10029FD
:1048F00005D00020C90FC90701D1C043410800B548
:1049000036F0A6FF0022002300BD00B500290ADB17
:10491000DB43524200D1013300F014F8C943404256
:1049200000D1013100BDC943404200D10131DB4318
:10493000524200D1013300F005F8DB43524200D16E
:10494000013300BD002923D1002B18D1002A0CD03F
:10495000BC460D4F38667A6600210023FFE7FFE76B
:10496000FFE77A6F386F67467047002801D0074825
:10497000010000B536F06CFF0022002300BD0200EC
:104980000B00002000217047000000D0FFFFFFFF58
:10499000002B00D0BDE0130C26D1002AE7D080B454
:1049A000104F39667A66FFE7FFE730B4040C7B6F7F
:1049B000396F1B0423433B66FFE7FFE7FFE7C04671
:1049C00084B27B6F3D6F1B0423433B66FFE7FFE729
:1049D000C04600232C042D0C7A6F386F00196941F2
:1049E000B0BC7047000000D0F0B594460025140E0E
:1049F00001D112020835140F01D112010435940FB0
:104A000001D192000235D40F01D152000135D40BEF
:104A10000134254F7C66254C3C660E0C93B2FFE7B3
:104A2000FFE7FFE73C6F6643360C7703BE467343F0
:104A3000DF0B5B04C01AB941130C7343DB18C91AAE
:104A4000CE086643360CB64493B273431F0F1B0166
:104A5000C01AB941130C73431F0B1B05C01AB9418F
:104A6000860D8F023E436643360C092D24DB520A25
:104A70007243801A7703460A6643360C16235B1B83
:104A8000DE40DF40BF1964466643821B7046043532
:104A900006330100D940A840C01900D30131A24219
:104AA00006D20023F0BD0000000000D0FFFFFFFF92
:104AB000121B0130F3D3F1E709277F1BFE40644648
:104AC000A2B27243801A00D20139220C7243130C35
:104AD0001204821A99410B00704604351337010005
:104AE000F940A840801900D30131002B02D1A24225
:104AF0000AD2F0BD013000D30131121BFAD2013BC2
:104B0000F8D1A24200D2F0BD013000D30131121B16
:104B1000F7E7F0B51C0C00D080E00CB400251C0AAF
:104B200004D11B02160E3343120208351C0B04D1AC
:104B30001B01160F3343120104359C0B04D19B005B
:104B4000960F334392000235DC0B02D192185B4181
:104B500001351C00971864410134464F7C66464C71
:104B60003C660E0CFFE7FFE7FFE7C0463C6F66437D
:104B7000360C7703BE4697B27743C01B00D201398B
:104B8000C01B00D201399FB27743C91BC91B170C48
:104B900077437E04FF0B801BB941CE086643360C79
:104BA0000C2D33DBB644120B1F053A431B0B97B297
:104BB0007743C01B00D201399FB27743C91B170C42
:104BC00077433E043F0C801BB941860D8F023E4364
:104BD000664329277F1BFE400C3D7746AF40BF1937
:104BE00030BCA2B2ABB272437343801A9941220C1B
:104BF0007243130C1204801A994102000B00013712
:104C0000001BA941F9D2781E0021F0BD0C277F1BA3
:104C1000FE4077467F0BAF40FF19E0E700245D1CA4
:104C200007D0144F7D663966FFE7FFE7FFE7FFE730
:104C30003C6F95B29EB265436643401BB141150C73
:104C40001E0C6543664336042F0C3E432D04401B67
:104C5000B141994204D202000B0020000021F0BDB6
:104C600001D19042F7D3801A994101349942F2D38D
:104C7000F6E70000000000D0FFFFFFFF4840414082
:104C8000484018B4114B5B68FC46019308BD04DF33
:104C9000CF4E001018B40D4B1B68FC46019308BDA5
:104CA00000DFD94E001018B4084BDB68FC460193B6
:104CB00008BD0CDF9151001018B4044B9B68FC46F2
:104CC000019308BD08DF355000100000A44100200A
:104CD000FFB550404240504059404B40594000E0E1
:104CE000FFB5154F4C00640D03D0BC4204D10C033A
:104CF00014D80020090D09055C00640D03D0BC42E6
:104D000004D11C030AD800221B0D1B0501264B40B1
:104D100009D44B4003D58B4200D18242FFBD99425A
:104D2000FCD19042FFBD0B43DB1803431343F5D086
:104D3000C9434918FFBD0000FF07000000B5FFF799
:104D4000CFFF01D0002000BD012000BD00B5FFF75E
:104D5000C7FF804100BDC04600B5FFF7C1FF01D9C4
:104D6000002000BD012000BD00B5FFF7B1FF01D953
:104D7000002000BD012000BD00B5FFF7A9FF804164
:104D800000BD012040054A00121804D85A0012182C
:104D900001D80020704701207047002070470000B4
:104DA0000021002805D17047C1174840401AFAD0A9
:104DB000C90713B5064B1B6898470CBC441CA2409E
:104DC0001005120B0349091B09051943114310BDB6
:104DD000A44300201F04000010B54C00620D802386
:104DE000D218DB00D21A5B057E2A10DD9E3A13DA58
:104DF000CC170903490819435242D14064000134D9
:104E00001532202A05DAD0400843604310BD002047
:104E100010BD0846604310BDC80FC018013810BD52
:104E200018B4044B5B6AFC46019308BD24DFBD53F4
:104E300000100000A441002018B4044BDB6FFC46B6
:104E4000019308BD7CDF395400100000A44100200C
:104E5000132370B51C78012C10D00BDD0C48FFF724
:104E600075FC0C4D01008022280000F0EDFB022CA7
:104E700001D070BD074D084AAA64FAE7054D064AFD
:104E800029002B00803104C38B42FCD1AA64F0E7D7
:104E900053440000A44100209D4E001007B5604619
:104EA00001880A0A0230DF2AFAD1C9B2820804D383
:104EB000028840880004104300E00068014A505016
:104EC000039007BDA44100200FB403BC0CBCF0B597
:104ED0000124E407634000E0F0B50C0DCF0F661E1F
:104EE0003605891B640503D3C943404200D3013111
:104EF000640D03D0661CF60A07D0E41B00207F0077
:104F0000791C89078912803C24031D0DDF0F6E1E5A
:104F100036059B1B6D0503D3DB43524200D301339F
:104F20006D0D03D06E1CF60A07D0ED1B00227F002A
:104F30007B1C9B079B12803D2D032F1B661B58D4A7
:104F4000A446202E46DA20371400BC401D00BD4088
:104F5000F24033412A4380185941CB0F05D0C94351
:104F6000C043002264425041514162464D0D28D158
:104F70000D0D07D100281FD0241940414941013AA5
:104F80000D0DF9D0640006D3013000D30131002C9F
:104F900001D140084000013A0BD4941CE40A04D12A
:104FA00012051144DB071944F0BDD907204B194302
:104FB00000E0D9070020F0BD0029DDD1002CDBD1B5
:104FC000F0BD0132C6074008CD0728434908002E2E
:104FD000E1D0D9E73C2E29DA203E40371400BC400E
:104FE00000D00124F24014431A00BB401C43D317E5
:104FF000ACE7AC46202F08DA20360400B4400D00A0
:10500000B540F84039412843A5E73C2F0CDA203F52
:1050100040360400B44000D00124F84004430800A6
:10502000B1400C43C117EAE710001900002494E7CF
:105030000000F07FF0B50C0D661E3605891BE60AF0
:105040006405640D02D0651CED0A04D00020012126
:105050000905803C2403A4461C0D671E3F05DB1B8D
:10506000E70A6405640D02D0651CED0A04D0002235
:1050700001231B05803C24037740644497B484B229
:1050800096B27443070C7E43150C6F4380B268439D
:10509000361802D3012000043F183004350C0019E3
:1050A0007D41844688B29AB250430C0C62431F0C77
:1050B0007C438EB27E43921902D301263604A41992
:1050C0001604170C3618674101BC81B29AB25143DD
:1050D000040C62431B0C5C4380B25843121802D389
:1050E0000120000424181004130C401863412D18EB
:1050F0005E410020474106BC88B293B258430C0C75
:105100006343120C544389B251435B1802D301210B
:105110000904641819041A0C091862416D185641E3
:105120000020474118BCF902720D1143F0026A0DCC
:105130001043ED020A0D03D16D1940414941013B75
:10514000124E9B1B7600B3420ED26D0007D3013086
:10515000002671416646354301D1400840001B05D9
:10516000C918E4072144F0BD0BDA013306D1013040
:1051700004D101314F0D01D04908F2E7E1070020C9
:10518000F0BD013631050020EBE70000FF03000011
:10519000F0B51C0D671E3F05DB1BE70A6405640DB7
:1051A00002D0661CF60A04D0002201231B05803CB5
:1051B0002403D0252D060026F6432E661E096E66B2
:1051C000CE0FF619B44649004F0D02D07E1CF60AE8
:1051D00003D000200021403F3F033E1BB600B444F3
:1051E000013F7F05C91B49082E6F013676089C02D6
:1051F000950D25437543ED137543AD1301356D10C2
:10520000F603761B0CB4CC02450D2C43A2B2B3B20C
:105210005A43270C7B43350C6F43A4B26C431B19D4
:1052200002D3012424043F191C041D0CA4187D4141
:1052300024196D41009A91B2ACB26143170C7C43C2
:105240002B0C5F4392B25A43A41802D301221204DA
:10525000BF182204230C52187B41019C6C431B197C
:10526000520ED9010A434401A01A81B2B2B251438D
:1052700003145A43360C734387B27743D617D219B7
:1052800000277E4136049B191704160C7F185E41D7
:105290007316ED18F301002680337541A90F06D16E
:1052A0006400690AE8055B0A184309D22FE004226A
:1052B000944480337541A90AA8059B0A184326D354
:1052C000404149412404009A019B0D005543641B51
:1052D0004343E41A95B286B27543170C7E43030C20
:1052E0005F4392B25A43B61802D301221204BF1888
:1052F0003204330C52197B4152429C41002C02D49F
:105300000022013051414008CA071043490802B049
:105310006246D7079210084BD218084B9A4203D224
:1053200012058918C919F0BD0020002A01DC3900D6
:10533000F0BD01331905F5E7FD030000FE0700008D
:10534000624618CA944600291ADAC01861415B46C1
:105350003B415C46B4405246FA40224344464D46E7
:1053600062416B41904699462B46B3403D41FC401B
:105370001C4352465B46A241AB4192469B46704756
:10538000C01AA1414B463B414C46B4404246FA400C
:10539000224354465D4662416B4192469B462B46F2
:1053A000B3403D41FC401C4342464B46A241AB4109
:1053B000904699467047002000217047002200B5B2
:1053C000203200F004F8080000BD000000220B1598
:1053D000F1D410B5944600F05DF81414013400DAED
:1053E0000021CB17134C20476244343A0CD40C2ACA
:1053F00007DA04009140904052422032D4402143C9
:1054000010BDD843D94310BD203207D40C46944078
:10541000524220321141D040204310BD0800C9172C
:10542000203203D452422032104110BD180019001E
:1054300010BD0000E95300104A00520D144BD21A5F
:1054400013DDFF2A1EDAD205CB0FDB071A43C30098
:10545000400F0903490A084310435B0001D301D000
:10546000013070474308FBD2704702D0C80FC00715
:1054700070470A0312130132F8D1420F072AF5D1FF
:10548000012200E0FF22C80F00028018C00570470B
:10549000800300000A0DCC0F531E1B05C91A5205CC
:1054A00003D3C943404200D30131520D03D0531CF2
:1054B000DB0A07D0121B00206400611C89078912D7
:1054C000803A1203014BD21A70470000FF0300001C
:1054D00051434343C9188C46110C83B24B4310B45B
:1054E000040C614392B280B2504362431C041B0C13
:1054F000001910BC59411304120CC01851416144E9
:105500007047000007B548404140484001E0C046B0
:1055100007B54200120E03D0FF2A03D1420218D869
:10552000C00DC0054A00120E03D0FF2A03D14A0263
:105530000FD8C90DC9050122414005D4414001D50C
:10554000814207BD884207BD0143491801D0C043CD
:10555000001807BD00B5FFF7DBFF804100BDC04666
:1055600000B5FFF7CFFF804100BD0000132310B549
:105570001C781348FFF7EAF8012C0BD004DD01007A
:105580008022104800F060F80F48FFF7D7F80F4B63
:10559000186010BD0B4C01005422200000F054F89C
:1055A0000B4B6365A365E36523666366A366E366E9
:1055B00023676367A367E3672362E361E4E7C046A9
:1055C00053460000A44200204C330000A4430020B6
:1055D000D555001007B5604601880A0A0230DF2A57
:1055E000FAD1C9B2820804D302884088000410436B
:1055F00000E00068014A5050039007BDA44200201B
:1056000010B504002AF058F9002804D0034B0419FF
:105610009C4200D810BD0248FDF75AF80000042053
:10562000D8C0031010B52AF051F910BD014804216B
:10563000014B1847A01300205D470010014B1B6869
:1056400018470000A0130020014B5B6818470000BA
:10565000A013002010B5FFF7D3FF10BD10B5FFF762
:10566000CFFF10BD10B5FFF7DDFF10BD10B5FFF780
:10567000D9FF10BD10B5FFF7D5FF10BDF8B54746EF
:10568000CE4680B5437C80460E001700002B48D0E4
:10569000002A2EDD274B012500240020994604E036
:1056A0002B00013401359F4219DD002C3ED0631ED2
:1056B000F35C0D3B59425941CBB2325D0A2AEFD11E
:1056C000002BEDD1844226DC434648461B6802216C
:1056D0009847013428002B0001359F42E5DCB84291
:1056E0000BDBF619013E33780D3B594259414346D5
:1056F00019740CBC90469946F8BD4346391A3018C7
:10570000F6191B68013E984733780D3B59425941C1
:1057100043461974EDE74346211A1B683018984731
:10572000D2E70368110030009847E2E743461B7C4C
:10573000C3E7C0464CC10310F0B5C6460B6800B5C0
:1057400006000D005A1C802B05D02A60ED182E7122
:1057500004BC9046F0BD0F4B1C68002C16D00B1DEE
:105760000D4F984602E0E468002C0FD02368002B10
:10577000F9D03B68002B01D0A342F4D120002A6865
:105780004146FFF77BFFE468002CEFD101220023A4
:10579000DBE7C046D83A0020DC3A0020F0B5DE4610
:1057A0004E4657464546E0B583B007002BF05EFEF7
:1057B000D02301AE1B068046310035481C6836F008
:1057C0008FF88146002807D1019B9C4204D03048C5
:1057D00036F0BEF8012399464346C346013351D003
:1057E0002C4B1C689A46002C40D02B4D02E0E468FC
:1057F000002C20D02368002BF9D02B68002B01D07F
:10580000A342F4D15A4639002000FFF737FF0A239C
:105810003370637C002B30D0237C002B21D10221FC
:105820001E482368984733780D3B594259412174EB
:10583000E468002CDED14B46002B1AD153461C687D
:10584000002C06D06368002B00D09847E468002C39
:10585000F8D1404603B03CBC90469946A246AB46C0
:10586000F0BD0121300023689847DCE74B46002B50
:10587000EFD0074835F0E4FFE0E70121300023686E
:105880009847B4E738002BF0F1FD8346A8E7C046FF
:10589000941D0020D83A0020DC3A00204CC10310AF
:1058A000F0B54646DE465746C0B5904682B00E007B
:1058B00000282CD1174B184D1A685B68174F9A4671
:1058C000174B01929B465B461C68002C05D115E0E6
:1058D000A34205D0E468002C10D02B68002BF7D130
:1058E000A368002BF6D04146300098470028F1DD30
:1058F00002B01CBC90469A46A346F0BD7B6A9A450E
:10590000E1D8BA6A01998A4201D29A45DBD00120D6
:105910004042EDE740BE0310DC3A00200040054065
:10592000D83A0020F0B54646D6464F46C0B5884620
:1059300082B0160001283FD1D0231B061C68204BE3
:1059400001A918009A4635F0CBFF071E06D1019B2E
:105950009C4203D0504635F0FBFF0137B146731C23
:1059600025D0184B1C68002C14D0174D02E0E468B9
:10597000002C0FD02368002BF9D02B68002B01D00E
:10598000A342F4D120004A464146FFF777FEE4687F
:10599000002CEFD1002F06D1300002B01CBC904685
:1059A0009946A246F0BD504635F04AFFF4E740461E
:1059B0002BF05CFD8146D4E701267642ECE7C04639
:1059C000941D0020D83A0020DC3A00200D4B1A68C4
:1059D000002A12D0824203D109E0984207D01A006F
:1059E000D368002BF9D1002900D0D060704700297E
:1059F000FCD1C368D360C160F8E70029F6D0186015
:105A0000F4E7C046D83A0020F0B54746CE46D0234A
:105A100080B52D4E1B06A5B01B6804000F0030009A
:105A200003A9984635F05CFF051E06D1039B9845F7
:105A300003D0300035F08CFF01358422002103A80B
:105A4000FFF7FCFD3B00220003A92048FEF746FEBD
:105A5000039B8046002B15D11D4B1C68002C06D0E3
:105A60006368002B00D09847E468002CF8D1002D23
:105A700002D0300035F0E4FE404625B00CBC904624
:105A80009946F0BD124B1C689946002C18D0114F56
:105A900002E0E468002C11D02368002BF9D03B68A9
:105AA000002B01D0A342F4D1039B20001A0004A9CB
:105AB0000193FFF7E3FDE468002CEDD14B461C6831
:105AC00000230393CAE7C046941D002039570010F5
:105AD000D83A0020DC3A00200FB400B583B004A906
